:100000000C945D000C9485000C9485000C94850084
:100010000C9485000C9485000C9485000C9485004C
:100020000C9485000C9485000C9485000C944A0374
:100030000C9485000C9485000C9485000C9485002C
:100040000C94A8020C9485000C9418030C94F202F2
:100050000C9485000C9485000C9485000C9485000C
:100060000C9485000C9485000000000024002700FB
:100070002A0000000000250028002B0004040404CE
:100080000404040402020202020203030303030342
:10009000010204081020408001020408102001021F
:1000A00004081020000000080002010000030407FB
:1000B0000000000000000000060411241FBECFEF66
:1000C000D8E0DEBFCDBF11E0A0E0B1E0E2E3FCE0AC
:1000D00002C005900D92AC31B107D9F721E0ACE137
:1000E000B1E001C01D92AB3EB207E1F710E0CDE5F3
:1000F000D0E004C02197FE010E941106CC35D10743
:10010000C9F70E9463040C9417060C9400008F92A8
:100110009F92AF92BF92FF920F931F93CF93DF9363
:100120008F3F980709F461C0853B910511F484EB7A
:1001300090E0F090E8012BE02F1508F44CC02091DE
:10014000EA0108E512E0021B110927FD1395000FD3
:10015000111F000F111F2091E901C8E8D0E0C21B58
:10016000D10927FDD395CC0FDD1FCC0FDD1F4E012C
:100170000D2E000CAA08BB089801012E000C440BA0
:10018000550B281939094A095B09DC010E94CC0585
:1001900024EB30E040E050E00E94A205820E931E66
:1001A000A41EB51E8C169D062CF0E8018016910643
:1001B0000CF4E4012297CC0FDD1F2FB7F8948F2D9C
:1001C00090E0FC01EE0FFF1FE80FF91FED53FE4F0B
:1001D000D283C1832FBFDF91CF911F910F91FF90E9
:1001E000BF90AF909F908F90089590E080E0A1CF56
:1001F00090E0FC01EC55FF4F2491FC01E057FF4FCC
:100200003491FC01E458FF4FE491EE23C9F022231E
:1002100039F0233001F1A8F4213019F1223029F10D
:10022000F0E0EE0FFF1FEE58FF4FA591B4918FB78E
:10023000F894EC91611126C030953E233C938FBF1A
:1002400008952730A9F02830C9F0243049F780916B
:1002500080008F7D03C0809180008F778093800025
:10026000DFCF84B58F7784BDDBCF84B58F7DFBCFA7
:100270008091B0008F778093B000D2CF8091B00092
:100280008F7DF9CF3E2BDACF3FB7F89480912201D2
:1002900090912301A0912401B091250126B5A89B3E
:1002A00005C02F3F19F00196A11DB11D3FBFBA2F08
:1002B000A92F982F8827BC01CD01620F711D811DC8
:1002C000911D42E0660F771F881F991F4A95D1F74D
:1002D00008958F929F92AF92BF92CF92DF92EF924A
:1002E000FF924B015C010E9444016B017C010E9462
:1002F00044016C197D098E099F09683E7340810590
:100300009105A8F321E0821A9108A108B10888EEAE
:10031000C80E83E0D81EE11CF11C81149104A104D5
:10032000B10429F7FF90EF90DF90CF90BF90AF908E
:100330009F908F900895AF92BF92CF92DF92EF92ED
:10034000FF920F931F93CF93DF936C017B018B017F
:10035000040F151FEB015E01AE18BF08C017D107CF
:1003600059F06991D601ED91FC910190F081E02D59
:10037000C6010995892B79F7C501DF91CF911F91AE
:100380000F91FF90EF90DF90CF90BF90AF900895C6
:10039000FC01538D448D252F30E0842F90E0821B8B
:1003A000930B541710F0CF96089501970895FC0110
:1003B000918D828D981761F0A28DAE0FBF2FB11D68
:1003C0005D968C91928D9F5F9F73928F90E00895C0
:1003D0008FEF9FEF0895FC01918D828D981731F07A
:1003E000828DE80FF11D858D90E008958FEF9FEFCE
:1003F0000895FC01918D228D892F90E0805C9F4FA4
:10040000821B91098F739927089586E291E00E94DB
:10041000F90121E0892B09F420E0822F089580E082
:1004200090E0892B29F00E94050281110C940000B4
:100430000895FC01A48DA80FB92FB11DA35ABF4F79
:100440002C91848D90E001968F739927848FA689D3
:10045000B7892C93A089B1898C91837080648C9327
:10046000938D848D981306C00288F389E02D8081D6
:100470008F7D80830895EF92FF920F931F93CF9308
:10048000DF93EC0181E0888F9B8D8C8D98131AC0CF
:10049000E889F989808185FF15C09FB7F894EE89B6
:1004A000FF896083E889F989808183708064808313
:1004B0009FBF81E090E0DF91CF911F910F91FF905E
:1004C000EF900895F62E0B8D10E00F5F1F4F0F7306
:1004D0001127E02E8C8D8E110CC00FB607FCFACFC1
:1004E000E889F989808185FFF5CFCE010E94190244
:1004F000F1CFEB8DEC0FFD2FF11DE35AFF4FF08292
:100500009FB7F8940B8FEA89FB8980818062CFCFF7
:10051000CF93DF93EC01888D8823B9F0AA89BB893A
:10052000E889F9898C9185FD03C0808186FD0DC025
:100530000FB607FCF7CF8C9185FFF2CF808185FF46
:10054000EDCFCE010E941902E9CFDF91CF9108953E
:100550001F920F920FB60F9211242F933F938F93F8
:100560009F93AF93BF9380911E0190911F01A09123
:100570002001B091210130911D0123E0230F2D377F
:1005800058F50196A11DB11D20931D0180931E01F8
:1005900090931F01A0932001B0932101809122012B
:1005A00090912301A0912401B09125010196A11DF4
:1005B000B11D8093220190932301A0932401B09355
:1005C0002501BF91AF919F918F913F912F910F90F6
:1005D0000FBE0F901F90189526E8230F0296A11DBD
:1005E000B11DD2CF1F920F920FB60F9211242F93ED
:1005F0003F934F935F936F937F938F939F93AF93AB
:10060000BF93EF93FF9386E291E00E941902FF915E
:10061000EF91BF91AF919F918F917F916F915F917A
:100620004F913F912F910F900FBE0F901F901895F3
:100630001F920F920FB60F9211242F938F939F93B7
:10064000EF93FF93E0913601F09137018081E091C3
:100650003C01F0913D0182FD1BC0908180913F01E2
:100660008F5F8F7320914001821741F0E0913F012D
:10067000F0E0EA5DFE4F958F80933F01FF91EF918F
:100680009F918F912F910F900FBE0F901F901895F3
:100690008081F4CF1F920F920FB60F9211242F93E7
:1006A0003F934F935F936F937F938F939F93AF93FA
:1006B000BF93CF93DF93EF93FF9380911C01C09181
:1006C000E701D0E087FF24C01092850010928400DB
:1006D00080911C018F5F80931C0180911C01082E6A
:1006E000000C990B8C179D0724F480911C018C3011
:1006F000C4F18091840090918500049680349C49D7
:1007000008F47AC08091840090918500049676C0A8
:1007100080911C01082E000C990B8C179D07C4F6C4
:10072000E0911C018E2FEE0F990BFC01EE0FFF1FC5
:10073000E80FF91FED53FE4F808186FFC9CFE0918E
:100740001C018E2FEE0F990BFC01EE0FFF1FE80F1F
:10075000F91FED53FE4F808160E08F730E94F80017
:10076000B7CF2091840030918500E0911C018E2F3D
:10077000EE0F990BFC01EE0FFF1FE80FF91FED5371
:10078000FE4F81819281820F931F90938900809305
:100790008800E0911C018E2FEE0F990BFC01EE0FEB
:1007A000FF1FE80FF91FED53FE4F808186FF11C038
:1007B000E0911C018E2FEE0F990BFC01EE0FFF1F35
:1007C000E80FF91FED53FE4F808161E08F730E94A7
:1007D000F800FF91EF91DF91CF91BF91AF919F9181
:1007E0008F917F916F915F914F913F912F910F90DA
:1007F0000FBE0F901F90189580E49CE9909389009C
:10080000809388008FEF80931C01E3CF1092290121
:100810001092280188EE93E0A0E0B0E080932A01D6
:1008200090932B01A0932C01B0932D0184E091E0D3
:10083000909327018093260185EC90E090933301FB
:100840008093320184EC90E09093350180933401E1
:1008500080EC90E0909337018093360181EC90E03A
:10086000909339018093380182EC90E090933B01A2
:1008700080933A0186EC90E090933D0180933C0197
:1008800010923F01109240011092410110924201DA
:100890008091E7018C3098F491E0980F9093E701F4
:1008A0008093E80190E0FC01EE0FFF1FE80FF91FB5
:1008B000ED53FE4F88EB9BE09283818308958FEF89
:1008C0008093E8010895789484B5826084BD84B5EE
:1008D000816084BD85B5826085BD85B5816085BD3B
:1008E00080916E00816080936E00109281008091F3
:1008F000810082608093810080918100816080937B
:100900008100809180008160809380008091B1009F
:1009100084608093B1008091B00081608093B000CA
:1009200080917A00846080937A0080917A0082605E
:1009300080937A0080917A00816080937A00809120
:100940007A00806880937A001092C100E0913601AD
:10095000F091370182E08083E0913201F091330120
:100960001082E0913401F09135018FEC8083109278
:100970003E01E0913A01F0913B0186E08083E091F5
:100980003801F0913901808180618083E0913801E4
:10099000F0913901808188608083E0913801F09185
:1009A0003901808180688083E0913801F0913901BC
:1009B00080818F7D808345E050E062E171E086E2D6
:1009C00091E00E949B0142E050E068E171E086E224
:1009D00091E00E949B018091E8018C3008F068C092
:1009E000E9E9F0E02491E5E8F0E08491882399F0CA
:1009F00090E0880F991FFC01E859FF4FA591B49131
:100A0000FC01EE58FF4F859194918FB7F894EC91CB
:100A1000E22BEC938FBF8091E801282F30E0F901A1
:100A2000EE0FFF1FE20FF31FED53FE4F9081907CFE
:100A3000996090831092E9011092EA012CE0622FF4
:100A40000E940506829FB001112430E020E0AB0136
:100A5000420F531FFA01EE0FFF1FE40FF51FED5376
:100A6000FE4F908196FD16C02F5F3F4F2C30310511
:100A700071F781110FC01092800082E08093810095
:100A80001092850010928400B19A80916F0082606C
:100A900080936F00E091E8018E2F90E0FC01EE0F53
:100AA000FF1FE80FF91FED53FE4F808180648083A4
:100AB00000E010E08CE390E00E94870064EF71E0BA
:100AC00080E090E00E9469018EE690E00E9487003D
:100AD00064EF71E080E090E00E946901D0E0C0E046
:100AE000CE010E9487006FE070E080E090E00E94FD
:100AF00069012196C53BD10599F7C4EBD0E0CE0141
:100B00000E9487006FE070E080E090E00E94690141
:100B10002197A8F768EE73E080E090E00E946901F9
:100B200068E873E180E090E00E9469010115110519
:100B300009F4C0CF0E940502882309F4BBCF0E94AC
:100B40000000B8CF052E97FB1EF400940E94B90553
:100B500057FD07D00E94D40507FC03D04EF40C9437
:100B6000B90550954095309521953F4F4F4F5F4FB8
:100B7000089590958095709561957F4F8F4F9F4F09
:100B800008950E94F605A59F900DB49F900DA49F17
:100B9000800D911D11240895B7FF0C94C1050E948A
:100BA000C105821B930B0895A1E21A2EAA1BBB1B41
:100BB000FD010DC0AA1FBB1FEE1FFF1FA217B30729
:100BC000E407F50720F0A21BB30BE40BF50B661F3F
:100BD000771F881F991F1A9469F760957095809503
:100BE00090959B01AC01BD01CF010895A29FB0017A
:100BF000B39FC001A39F700D811D1124911DB29F51
:100C0000700D811D1124911D0895991B79E004C078
:100C1000991F961708F0961B881F7A95C9F780953B
:100C20000895EE0FFF1F0590F491E02D0994F894BC
:020C3000FFCFF4
:100C3200000000003B029B01C8018802F901D701B4
:0C0C4200EB015374617274000D0A000095
:00000001FF
